:020000040800F2
:10000000C805002001010008E3210008351D000893
:10001000E12100084B090008F3250008000000005A
:100020000000000000000000000000007B2300082A
:100030004D09000800000000792300087D23000816
:100040001B0100081B0100081B0100081B01000820
:100050001B0100081B0100081B0100081B01000810
:100060001B0100081B0100081B0100081B01000800
:100070001B0100081B0100081B0100081B010008F0
:100080001B0100081B0100081B0100081B010008E0
:100090001B0100081B0100081B0100081B010008D0
:1000A0001B010008E92300081B0100081B010008D0
:1000B0001B01000801240008000000001B010008CB
:1000C0001B01000800000000000000001B010008E8
:1000D000000000001B0100081B01000800000000D8
:1000E0001B0100081B0100081B010008DFF80CD0F1
:1000F00000F0E8FB004800472D260008C805002056
:100100000648804706480047FEE7FEE7FEE7FEE7B1
:10011000FEE7FEE7FEE7FEE7FEE7FEE7E72300086F
:10012000ED000008D2B201E000F8012B491EFBD21D
:1001300070470022F6E710B513460A4604461946F2
:10014000FFF7F0FF204610BDF0B480EA0102D40FA3
:100150004200B2EB410F02D20246084611464A0065
:1001600042D0C30DDDB2C1F3C752AD1A202D35DA2E
:10017000C1F3160141F4000204B15242C5F1200658
:1001800002FA06F12A411044B3EBD05F23D0C4B188
:10019000012DA0EBC35009DCF0BC4FF0004202EA95
:1001A000C352DBB200F5000000F02ABA400000F1B3
:1001B000807000EBC350A0F1807040EAD17049001C
:1001C00009E0490841EAC071A0EBC35000F5000006
:1001D000400800EBC350F0BC00F009BA61420122B4
:1001E00002EB4101001BF6E7F0BC704781F00041D3
:1001F000AAE780F00040A7E780EA010210B502F00C
:100200000043400022D04A001FD0010E01EB1261D2
:10021000C0F35600C2F3560240F4000042F400025C
:10022000A0FB022000047F39140400D0401C50EAD7
:10023000124001D44000491EC2B20C0604EBD0109B
:10024000401C4008802A02D003E0002010BD20F0AE
:100250000100002900DA0020184310BD30B480EA04
:10026000010202F0004530F0004221F0004013D0BE
:1002700090B1C30DD40DC2F31601C0F31600E41AF9
:1002800041F4000140F400027D34914201D3641C2A
:1002900000E04900002C02DA30BC002070474FF427
:1002A00000000023914201D3891A034340084FEA1A
:1002B0004101F7D151B1914202D14FF0004105E027
:1002C00002D24FF0010101E06FF0010103EBC450D5
:1002D000284430BC00F08BB92DE9FE4F81EA0304BD
:1002E00004F0004421F0004100944FF0000B23F093
:1002F000004350EA01045ED052EA03045BD0C3F32A
:100300000A54C1F30A552C44A4F2F3340194A0FB1F
:100310000254C1F3130141F48011C3F3130343F4F6
:10032000801301FB024400FB034E840A970A44EA4F
:10033000815447EA8357A4FB076802958D0A05FBA1
:1003400007854FEA932C04FB0C542705029D4FEAC6
:10035000065847EA1637B5EB08056EEB070C870E13
:10036000920E47EA811742EA8312A7FB0201B6EB1D
:100370000B0164EB00042B0D43EA0C335E1844EBD5
:100380001C50DA465146E7FB0201C5F313044FEA5D
:100390000B3343EA14534FEA0432019C43EA060349
:1003A000A4F10C040294009CCDE900B400F065F9BE
:1003B00003B0BDE8F08F00200146F9E72DE9F04DCC
:1003C00081EA030404F0004B21F0004514464FF08D
:1003D000000A23F0004150EA050220D054EA01024D
:1003E0001DD0C5F30A570246C5F31303C1F313002A
:1003F000C1F30A5640F4801543F48013A7EB0608B6
:10040000101BD64608F2FD3873EB050002D308F145
:10041000010801E092185B41B8F1000F03DA0020F7
:100420000146BDE8F08D00204FF480110646844659
:100430000EE0171B73EB050705D3121B63EB0503D7
:1004400006434CEA010C49084FEA300092185B4120
:1004500050EA0107EDD152EA030012D082EA04000B
:1004600083EA0501084305D0101BAB4106D20122E7
:10047000002306E000224FF0004302E06FF001028B
:1004800053101AEB06004CEB085110EB0A0041EB3D
:100490000B01BDE8F04D00F0E1B8002801DBC0F130
:1004A0000040002901DBC1F10041814201D9012056
:1004B00070470020704796230022114600F0A0B834
:1004C0000EB540F2334102910021CDE900110A46F8
:1004D0000B4600F0D2F803B000BD20F00040C10D83
:1004E000C0F3160040F400007F2901DA00207047B5
:1004F000962903DCC1F19601C840704796398840BF
:10050000704700F0004230F000400AD0C10D01F504
:100510006071C0F3160042EA0151C208400711435E
:10052000704700200146704701F0004330B421F0CD
:10053000004150EA010206D00A0DA2F56072C1F333
:100540001301002A02DC30BC00207047440F44EA4B
:10055000C104C100E01830BC00EBC25000F047B845
:1005600030B50B46014600202022012409E021FA83
:1005700002F59D4205D303FA02F5491B04FA02F580
:100580002844151EA2F10102F1DC30BD2DE9F05F17
:100590000546002092469B468846064681464024F2
:1005A0001BE0284641464746224600F0ACF9534638
:1005B0005A46C01A914110D311461846224600F0FF
:1005C00093F92D1A67EB01084F46224601200021BE
:1005D00000F08AF917EB00094E41201EA4F1010436
:1005E000DFDC484631462A464346BDE8F09F0029F5
:1005F000A8BF7047401C490008BF20F001007047A9
:1006000010B4B0FA80FC00FA0CF050EA010404BF08
:1006100010BC704749B1CCF1200421FA04F411FA5E
:100620000CF118BF012121430843A3EB0C01CB1DA2
:100630004FEA00614FEA102042BF002010BC704713
:1006400000EBC35010440029A4BF10BC7047401CED
:10065000490008BF20F0010010BC704710B5141EFF
:1006600073F1000408DA401C41F1000192185B416B
:100670001A4301D120F0010010BD2DE9F04D924642
:100680009B4611B1B1FA81F202E0B0FA80F2203259
:10069000904600F029F904460F4640EA0A0041EA74
:1006A0000B0153465A46084313D0114653EA010042
:1006B00019D0C8F14002504600F025F905460E4613
:1006C00050465946424600F00FF9084305D0012034
:1006D00004E020463946BDE8F08D0020054346EA97
:1006E000E0762C4337430A986305E40AA0EB080040
:1006F0000022FD0A44EA47540A3002D50020014690
:10070000E9E7010510196941DDE90845001969416A
:10071000BDE8F04DA2E72DE9FE4F804681EA0300D7
:10072000C00F0C46009021F0004123F00045B8EBCB
:100730000200A94105D24046214690461C460B4680
:10074000024623F00040104347D0270DC7F30A00AC
:10075000C3F30A510290401A019040286BDAC3F3A8
:10076000130040F4801B0098924620B10023D2EB86
:10077000030A63EB0B0B01985946C0F14002504647
:1007800000F0B2F806460D4650465946019A00F070
:10079000CAF810EB08006141002487EA115284EA8C
:1007A000E7731A4340D0009A62B3019A012A4FEAD4
:1007B000075215DC001B61EB02014FF0004202EA18
:1007C0000752CDE90042001C41F5801132462B460C
:1007D000FFF753FF03B0BDE8F08F40462146F9E72D
:1007E000001B61EB0201001C41F5801300185B4106
:1007F0002018A2F5001747EB030140EAD570B6199F
:100800006D4111E06D084FEA360645EAC0754FEAC2
:100810000752001B61EB0201001C41F580114908E1
:100820004FEA30000019514132462B4603B0BDE873
:10083000F04FFFF713BF0098012240000023D0EBD8
:10084000020263EBE073009821464FEAE074B8EBD4
:10085000000061EB0401E9E783F000435BE781F00E
:10086000004158E7C1F30A52C1F3130140F2FF33CC
:1008700041F480119A4202DA00200146704740F2AA
:1008800033439A42A2F2334202DC524200F03BB8B8
:1008900000F02AB830B5041E71F1000404DB4FF0FB
:1008A0000044404264EB0101141E73F1000405DBB7
:1008B0001C464FF00043524263EB0403994208BFC9
:1008C000904230BD064C074D06E0E06840F0010361
:1008D00094E8070098471034AC42F6D3FFF70AFCBF
:1008E0000839000828390008202A04DB203A00FAD9
:1008F00002F1002070479140C2F1200320FA03F377
:10090000194390407047202A04DB203A21FA02F074
:100910000021704721FA02F3D040C2F12002914039
:10092000084319467047202A06DBCB17203A41FAC4
:1009300002F043EAE07306E041FA02F3D040C2F16C
:1009400020029140084319467047FEE77047EFF3D5
:10095000108072B6FEE700002A48016811F0100FFF
:1009600001D1002105E0A849CA6942F00202CA612A
:100970001021026812F0040F06D0A34A41F00401CE
:10098000D36943F00103D361026912F0010F08D06B
:100990009D4AD36943F00403D361026922F0010246
:1009A00002610160704700BF70B5044600F02CFA88
:1009B0000546661C1348016811F0010F09D0002E8E
:1009C000F8D024B100F020FA401BA042F2D9032055
:1009D00014E0016811F0200F1CBF202101600168A4
:1009E00011F0100F07D1016911F0010F04BF006869
:1009F00010F0040F04D0FFF7AFFF0120C0B270BDAC
:100A00000020FBE70C2002401CB5044600F000F972
:100A1000002001A90190EFF3108072B60B4800F09E
:100A200043F810B90AA001F0F1FA14492046FFF783
:100A3000E3FBFFF752FD62B60F4902460220002396
:100A400000F08EF800F0E4F81CBD00BF500000205C
:100A5000466C617368204572617365204F4B0D0AC7
:100A60000000000080B504480068FFF724FD03493A
:100A7000FFF7F4FB80BD00BF0070000800007A445F
:100A800070B505466E1C00F0BFF904461EB1E04883
:100A90000078054401E04FF0FF3500F0B5F9001B88
:100AA000A842FAD370BD00BF2DE9F843564E054663
:100AB0008946307E012801D1022021E001203076D4
:100AC0004CF250302C68FFF76FFF504F022C13D1BF
:100AD00098B90020F061386840F004003860386848
:100AE00040F0400038604CF25030FFF75DFF39684D
:100AF00021F00401396001E030B10120002131769C
:100B0000C0B201B0BDE8F0834FF0FF304FF00008F5
:100B1000C9F800000120A9680C4618E0C6F81C803E
:100B2000386840F0020038607C60386840F040006F
:100B300038604CF25030FFF737FF3968002821F059
:100B40000201396009D1A96804F580640020EA68CF
:100B500001EB82218C42E1D3D0E7C9F80040CDE718
:100B60002DE9F84FDFF8A08081461C4692460E46DC
:100B700098F81800012801D1022042E0012088F8ED
:100B800018004CF25030FFF70FFFB8BBB9F1020F5D
:100B90004F466FF01F0B18BF0427B9F1010F08BFB4
:100BA0004F464FF000095FFA89F0874225D90021AE
:100BB0000201C8F81C102AFA02F2144D296841F00B
:100BC000010129602021A1EB001104FA01F1114378
:100BD0000BEB0012002AA8BF24FA02F126F810102D
:100BE0004CF25030FFF7E0FE296809F101090028B6
:100BF00021F001012960D6D000E00020002188F812
:100C0000181001B0BDE8F08F9801002010200240BC
:100C10000748C16811F0800F04BF002070470549E4
:100C2000016005490160C068C0F3C010704700BF93
:100C30000420024023016745AB89EFCD2DE9FE4F2B
:100C4000624A03234FF0000B01274FF00F0C4FF0C7
:100C5000000A4FF00008904200F1140208BF02237E
:100C6000009201930A6832FA08F308BFBDE8FE8FCC
:100C700007FA08F912EA090F00F0A3804A68032A6C
:100C800016D9112A27D0122A29D0514B9A4213D0B3
:100C9000504B9A421CBF504B9A420DD04F4B9A4238
:100CA0001CBF4F4B9A4207D04E4B9A4204D023E0D0
:100CB000DFE802F002191C208A684AB1012A009A72
:100CC0004FF0080A08BF00F11002C2F8009013E0CC
:100CD0004FF0040A10E0CA6802F1040A0CE0CA6886
:100CE00002F10C0A08E0D1F80CA005E0CA6802F194
:100CF000080A01E04FF0000AB8F1080F0246454625
:100D000028BF04321368384C28BF2544AE000CFAC3
:100D100006F50AFA06F6AB4333431360CA79D206E6
:100D20004FD5F94A4FEA9806136843F00103136060
:100D3000126802F0010202920BF00C02029B2B4C93
:100D40000CFA02F5A4F57E7353F8267027EA050C19
:100D5000274DA84207D0274DDDF804E0A84208BF80
:100D60004FF0010E01E04FF0000E0EFA02F20127E3
:100D700042EA0C024FF00F0C43F826204A681E4E40
:100D8000A36812F4801F0CBF23EA090343EA090396
:100D9000A3609302336854BF23EA090343EA0903BB
:100DA00033609303636854BF23EA090343EA0903EA
:100DB000D2036360226854BF22EA090242EA0902B0
:100DC00022600BF1040B08F101084BE70010014011
:100DD000000011100000121000002110000022106D
:100DE0000000311000003210F8FFFF3F0004014006
:100DF00000080140000C01400C04014080680840DC
:100E000018BF012070470000DA488068704700BFB3
:100E100028000020B0B504462CB394F83D0028B952
:100E2000002084F83C00204600F040F9242084F89B
:100E30003D002068016821F001010160016841F472
:100E400000410160016821F40041016000F098FA5E
:100E500065684849484A8D423CBF48F28042C0F22A
:100E60001E02904201D20120B0BD4449B0FBF1F214
:100E7000216801384B6823F03F0313434B600B6A32
:100E800023F03F0C3B4B9D4221BF4FF496735A43D6
:100E90004FF47A73B2FBF3F201324CF6FF7342EA7D
:100EA0000C020A62CA6922EA030C354A954209D843
:100EB0006A00B0FBF2F001306FF31F30042898BFD6
:100EC00004202DE0D4F808E0BEF1000F08D019226C
:100ED00004236A43B0FBF2F2013263F31F3206E0EF
:100EE00005EB4502B0FBF2F201326FF31F3212053F
:100EF0000BD0BEF1000F0AD019226A43B0FBF2F00A
:100F00000422013062F31F3008E0012008E005EB05
:100F10004502B0FBF2F001306FF31F3040F40040A7
:100F200040EA0C00C8610868D4E9072320F0C0003B
:100F3000104348F2FF321843086088689043D4E9B0
:100F40000323184310438860C868D4E9052320F0C0
:100F5000FF0010431843C860086840F001000860B3
:100F600000202021206484F83D10206384F83E0096
:100F7000B0BD00BFA186010000093D0040420F0046
:100F8000A08601002DE9FE43994616460F46044609
:100F9000FFF73AFF054694F83D0020280BD1009555
:100FA0002046012219233F4900F067FF18B994F841
:100FB0003C00012804D10220C0B203B0BDE8F08398
:100FC0000122DDE90A10DDF8308084F83C20226837
:100FD000136813F0010F02BF136843F0010313609D
:100FE000136823F40063136021224B4684F83D20EC
:100FF000402284F83E2000222264616260853946E6
:101000003246608D20852848E0622046CDE9008583
:1010100000F0AAFE08B10120CEE7208D23E0204693
:1010200041462A4600F0C4FF28BB616A2268084690
:1010300010F8013B13616062238D581E2085678D77
:10104000013F6785576917F0040F0CD000044FF07B
:10105000000008D048781061881C6062981E2085C6
:10106000618D013961850004D9D1204641462A4667
:1010700000F0D6FE40B1206C0428CCD12068016875
:1010800041F400710160C6E72068016841F4007115
:101090000160202084F83D00002084F83E0084F8A0
:1010A0003C0089E7020010000000FFFF10B586B089
:1010B0000021CDE90411CDE90211026811488242F4
:1010C0001ED13B4C00F53840226842F008022260F5
:1010D000226802F008020192019AC02202921222B2
:1010E000CDE903210321059102A9FFF7A7FD60685F
:1010F00040F400106060606800F4001001900198F6
:1011000006B010BD00540040181002401948017884
:10111000826811448160704780B50748016841F0DA
:1011200010010160032000F081F80F2000F006F8A4
:1011300000F022F8002080BD0020024070B50D4E66
:1011400004464FF47A713078B1FBF0F096490968A3
:10115000B1FBF0F000F018FB01250F2C08D838B9CE
:101160004FF0FF3021460022002500F033F8746074
:10117000284670BD2800002082B00D480222016878
:1011800041F001010160016801F001010191019943
:10119000416841F080514160406800F0805000900B
:1011A00000980448016862F31A61016002B0704758
:1011B0001810024004000140002808DB00F01F0165
:1011C0000122400902FA01F1014A42F82010704759
:1011D00000E100E0B0B5144C1A4D00F00F03B0F17F
:1011E000FF3FA3F104032B4403F10C03C8BF031911
:1011F0002868C0F30220051DC41E80F00700072DDB
:101200004FF0010538BF0024042828BF042005FA48
:1012100000F00138084005FA04F10F31A0401140F8
:10122000084300011870B0BD00E400E005494FF626
:10123000FF030A681A4060F30A220348104308605B
:10124000704700BF0CED00E00000FA052DE9F04109
:1012500004468846002C00F08880464F4FF48050AA
:10126000395801F0070141450AD2395821F00701E8
:1012700041EA08013950385800F00700404574D160
:10128000206810F0020F11D0410742BF796841F485
:10129000E0617960010742BF796841F4605179608B
:1012A0007968A26821F0F00111437960C00727D066
:1012B0006068012804D1396811F4003F08D154E076
:1012C0003968022802D1890102D44EE089074CD541
:1012D000796821F0030108437860FFF795FD064621
:1012E00041F288357868616800F00C00B0EB810F3E
:1012F00006D0FFF789FD801BA842F3D9032035E013
:101300004FF48050395801F0070141450AD9395846
:1013100021F0070141EA08013950385800F0070070
:10132000404522D1206810F0040F05D07968E268AA
:1013300021F4E06111437960000706D578682169DE
:1013400020F4605040EAC100786000F031F879681C
:10135000094AC1F30311515CC840134908600748AA
:101360000068FFF7EBFE002000E00120C0B2BDE8FE
:10137000F08100BF00100240E63000082C00002081
:1013800009480A4A006818490968C1F30221515CFA
:10139000C8407047FA48054A0068F7490968C1F330
:1013A000C221515CC840704760000020F630000840
:1013B0000D490A680D4802F00C03082B18BF70474E
:1013C000C2F3834C0AA312F4803F13F80C3002D10D
:1013D0000C4858437047096809A25843C1F340417B
:1013E000515CB0FBF1F070470410024000127A002B
:1013F00002030405060708090A0B0C0D0E0F101056
:101400000102000000093D002DE9FE4F8246BAF1BD
:10141000000F00F065819AF80000D64ED64FC00745
:1014200050D0386800F00C00042819D0386800F05B
:101430000C00082803D1386810F4803F10D1DAF886
:101440000400A8B1B0F5803F06D03168B0F5A02FF8
:1014500024D141F480203060306840F4803023E0B3
:10146000306810F4003F2DD0DAF8040050BB37E1AB
:10147000306820F480303060306820F480203060A4
:10148000FFF7C2FC0546306810F4003F1AD0FFF7A2
:10149000BBFC411B03206429F5D922E121F48030F3
:1014A0003060306820F480203060FFF7ADFC0546E6
:1014B000306810F4003F05D1FFF7A6FC401B6428FC
:1014C000F6D9EBE09AF800008007AC48834632D5A5
:1014D000386810F00C0F1DD0386800F00C00082898
:1014E00004BF386810F4803F14D0DAF810000028E8
:1014F00000F09580012059460860FFF785FC0546FD
:10150000306810F0020F0ED1FFF77EFC401B02285E
:10151000F6D9C3E0306810F0020F1CBFDAF81000F3
:10152000012840F0DD803068DAF8141020F0F8006F
:1015300040EAC10030609AF80000000731D5DAF8BF
:10154000180080B101205946C1F88004FFF75CFC07
:101550000546386A10F0020F16D1FFF755FC401B04
:101560000228F6D99AE000205946C1F88004FFF716
:101570004BFC0546386A10F0020F12D0FFF744FC0E
:10158000401B0228F6D989E07D484FF4FA510068E3
:10159000B0FBF1F0029000BF0298411E00280291BA
:1015A000F9D19AF80000400740F18180B86910F045
:1015B000805F0BD1B8694FF0010840F08050B861EE
:1015C000B86900F080500190019801E04FF00008E8
:1015D0006C48305810F4807F12D16A48315841F479
:1015E00080713150FFF710FC05466648305810F402
:1015F000807F05D1FFF708FC401B6428F5D94DE03A
:10160000DAF80C00E8B1012805D0F969052830D1D5
:1016100041F00400F861F86940F001002FE000207B
:1016200059460860FFF7F0FB0546306810F0020FDE
:101630003FF481AFFFF7E8FB411B03200229F4D9F7
:101640004FE0F86920F00100F861F86920F004002B
:10165000F861FFF7D9FB054641F28839F86910F0C7
:10166000020F1DD0FFF7D0FB411B03204945F5D9E0
:1016700037E021F00100F861F86920F00400F8611A
:10168000FFF7C2FB054641F28834F86910F0020FFB
:1016900006D1FFF7B9FB401BA042F6D9032020E09A
:1016A000B8F1010F02BFB86920F08050B861DAF8D4
:1016B0001C405946002C5AD0386800F00C0008280D
:1016C00013D1012C0CD03868DAF8201000F48032E5
:1016D0008A4205D1DAF8241000F47010884246D00E
:1016E0000120C0B203B0BDE8F08F00200866FFF70C
:1016F0008BFB0546022C0AD1306810F0007F11D018
:10170000FFF782FB411B03200229F5D9E9E7306886
:1017100010F0007F2BD0FFF777FB411B032002293D
:10172000F5D9DEE7DAF82000B0F5803F06D1396858
:10173000DAF8082021F4003111433960396821F4C6
:1017400074110843DAF82410084338600120CBF8FC
:101750006000FFF759FB0446306810F0007F06D1A7
:10176000FFF752FB011B03200229F5D9B9E700203E
:10177000B7E700BF001002400410024000004242E0
:10178000600000200060FEFF411E0020B0EB116FE2
:101790001CBF01207047044AF023516003490B70BD
:1017A000072190601160704710E000E023ED00E039
:1017B0007047704790F83C300222012B25D080B54D
:1017C000012380F83C3080F83D2002685368D2F84D
:1017D00008C0B2F1804F23F0700E0B6843EA0E038D
:1017E0005360BDE880401CBF534B9A4202D0534B1C
:1017F0009A4204D149682CF0800319439160012179
:10180000002280F83D1080F83C20D0B2704700BF25
:1018100010B5044634B394F83D0028B9002084F88C
:101820003C00204600F020F80220211D84F83D00F5
:10183000206800F00FFE012084F8460084F83E0086
:1018400084F83F0084F8400084F8410084F84200A6
:1018500084F8430084F8440084F8450084F83D008F
:10186000002010BD012010BDFEB50021CDE90411FE
:10187000CDE9021101681E48304A914225D02E4A16
:10188000914233D1016841F400610160016801F4C3
:10189000006101910199016841F00401016002A910
:1018A000006800F00400019001984FF4805002900D
:1018B0000020CDE90300F348FFF7C0F9192000210B
:1018C0000022FFF787FC19200EE04168002241F05A
:1018D000020141600021406800F00200019001987F
:1018E0001D20FFF777FC1D20FFF766FC06B080BDCA
:1018F0001810024090F83D1001291CBF01207047CC
:10190000022180F83D100068C168B0F1804F41F0BD
:101910000101C1601CBF0849884202D007498842C2
:1019200004D1816801F00701062903D0016841F064
:101930000101016000207047002C014000040040BC
:1019400010B50446022094F83C20012A70D00122F0
:101950004FF6777384F83C2084F83D002068826855
:101960009A4382600A6812B3102A20D0202A18BF36
:10197000302A1CD0402A21D0502A2BD0602A35D0C2
:10198000B2F5005F3ED0B2F5805F4AD0702A51D1E7
:10199000D1E90123C9681A4342EA0121826822F48D
:1019A0007F4211438160816841F0770138E08168AE
:1019B00021F07701114341F0070131E04B68CA681B
:1019C000194600F079FD2068816821F0770141F027
:1019D000470125E04B68CA68194600F06DFD206894
:1019E000816821F0770141F0570119E04B68CA681E
:1019F000194600F072FD2068816821F0770141F0FE
:101A000067010DE0D1E90123C9681A4342EA0121C7
:101A1000826822F47F4211438160816841F48041F1
:101A200081600020012184F83D10002184F83C10E1
:101A3000C0B210BD0120F5E7704710B5044620681C
:101A4000016911F0020F1CBFC16811F0020F15D01F
:101A50006FF00201016101212177806910F0030F0D
:101A600003D02046FFF7E8FF05E0204600F09EF88F
:101A7000204600F09CF8002020772068016911F0D2
:101A8000040F1CBFC16811F0040F15D06FF00401E2
:101A9000016102212177806910F4407F03D0204644
:101AA000FFF7CAFF05E0204600F080F8204600F06E
:101AB0007EF8002020772068016911F0080F1CBF14
:101AC000C16811F0080F15D06FF008010161042101
:101AD0002177C06910F0030F03D02046FFF7ACFF59
:101AE00005E0204600F062F8204600F060F8002093
:101AF00020772068016911F0100F1CBFC16811F038
:101B0000100F15D06FF01001016108212177C06915
:101B100010F4407F03D02046FFF78EFF05E02046FB
:101B200000F044F8204600F042F8002020772068BA
:101B3000016911F0010F1CBFC16811F0010F06D03F
:101B40006FF001010161204600F032F82068016960
:101B500011F0800F1CBFC16811F0800F06D06FF02C
:101B6000800101612046FFF723FE2068016911F022
:101B7000400F1CBFC16811F0400F06D06FF040014C
:101B80000161204600F015F82068016911F0200F6E
:101B90001CBFC16811F0200F00D110BD6FF02001F3
:101BA00001612046BDE81040FFF703BE7047704753
:101BB0007047704710B504464CB394F8410028B9FB
:101BC000002084F84000204600F024F8242084F807
:101BD00041002068C16821F40051C160204600F036
:101BE0008FFC2068016921F490410161416921F075
:101BF0002A014161C16841F40051C16000202021E7
:101C0000606484F8411084F84210606310BD0120C4
:101C100010BD000070B586B00026CDE90466CDE9A0
:101C20000266184C006804F54051884227D11648D6
:101C300002AD016841F480410160016801F4804116
:101C400001910199016841F0040101602946006891
:101C500000F00400019001984FF4007002900220FF
:101C60000390032005902046FEF7E8FF4FF48060C4
:101C70002946CDE9020620460496FEF7DFFF06B0AE
:101C800070BD00BF00080140181002402DE9F84364
:101C900004461D461746884694F8410020281CD16A
:101CA000B8F1000F4FF0010018BF002F3ED04FF0E9
:101CB00000092120C4F8449084F84100FFF7A4F8FB
:101CC000A784E7840646A068B0F5805F07D127693E
:101CD000002F0CBFC146474618E0022026E04746C9
:101CE00014E02046802132462B4600F04BFCB8B968
:101CF000206817B117F8011B04E039F8021B002710
:101D00006FF35F214160E08C0138E084E08C0028B3
:101D1000E7D12046402132462B4600F033FC08B183
:101D2000032003E0202084F841000020C0B201B06D
:101D3000BDE8F083FEE70000014600200A68536911
:101D400013F4806F08BF7047984B536120220863DB
:101D500081F83D2081F83E000A6C42F004020A64DA
:101D600081F83C00012070472DE9FE4304460F46F0
:101D70000A9D0B9E99469046002220682B460168DA
:101D800041F48071016020464FF00111009600F08F
:101D900074F8216840B1086810F4807F1CBF4FF4CC
:101DA0000070206403200AE007F0FE002A46334654
:101DB00008612046194900F0ABF820B10120C0B2FB
:101DC00003B0BDE8F08300203246029020684169EC
:101DD00002912946806902900298204600F0E8F8B6
:101DE00040B1206C0428E9D12068016841F40071F9
:101DF0000160E3E7B9F1010F0AD020684FEA18212A
:101E0000324601612046294600F0D2F80028E8D188
:101E100020685FFA88F101610020D0E7020001002C
:101E2000F8B50E4615460446771C2068406910F048
:101E3000040F1FD12046FFF77FFFC8B9002FF4D051
:101E4000FEF7E2FF16B1401BB042EED920684069B0
:101E500010F0040FE9D100202021206384F83D1008
:101E600084F83E00216C41F02001216484F83C009C
:101E7000012000E0002001B0F0BD2DE9F047DDF8C1
:101E800020909846164604468FB201F47F0508F16B
:101E9000010A2068B5F5803F00F1180108BF00F184
:101EA000140108683840C01BB0FA80F04009B04205
:101EB0001CBF0020BDE8F087BAF1000FE9D0FEF7A3
:101EC000A3FFB8F1000F03D0A0EB09004045E0D913
:101ED0002068B5F5803F00F1180108BF00F114013A
:101EE00008683840C01BB0FA80F04009B042D0D139
:101EF00000202021206384F83D1084F83E00216CEE
:101F000041F02001216484F83C000120BDE8F08705
:101F10002DE9F8439146984604468FB201F47F05B7
:101F200009F101062068B5F5803F00F114010A4669
:101F300018BF00F1180212683A40BA421CD0096872
:101F400011F4806F1AD1002EECD0FEF75DFFB9F1CD
:101F5000000F03D0A0EB08004845E3D92068B5F591
:101F6000803F00F1180108BF00F1140108683840F3
:101F7000B842D7D0202008E0002013E0016841F4E7
:101F80000071016009494161042000212022216380
:101F900084F83D2084F83E10226C10432064012018
:101FA00084F83C1001B0BDE8F08300BFFFFBFFFFE9
:101FB000F8B50E4615460446771C2068406910F0B7
:101FC000800F1FD12046FFF7B7FEC8B9002FF4D00D
:101FD000FEF71AFF16B1401BB042EED920684069E7
:101FE00010F0800FE9D100202021206384F83D10FB
:101FF00084F83E00216C41F02001216484F83C000B
:10200000012000E0002001B0F0BD000083B0B0B5B9
:10201000CBB005464FA801AC0EC04FAB4FF4947146
:102020002A462046009300F0CFFB6C4D07E028467F
:10203000214601224FF0FF33FFF728FE01342078BC
:102040000028F4D14BB0BDE8B04003B0704700BFEA
:10205000FEB5002105911348026842F0200202609B
:10206000026802F020020192019A026842F0040222
:102070000260026802F004020192019A026842F0D2
:1020800008020260006800F0080001900198012039
:10209000CDE90201049002A90348FEF7CFFD06B086
:1020A00080BD00BF181002400008014080B5B14853
:1020B0000A494FF480420160094941600021C0E9AA
:1020C00002110162C0E90611C0E90421FEF7A2FE77
:1020D00018B1BDE88040FEF73ABC80BD0054004016
:1020E000A086010010B586B00024D5484FF6FF72D7
:1020F0008023CDE90444CDE90244CDE90044EC4914
:10210000C0E90014C0E90242C0E904448361FFF75A
:102110007FFB08B1FEF71BFC4FF4005002A9CDE98C
:102120000204C748CDE90444FFF70AFC08B1FEF7F2
:102130000EFC00206946CDE90000C148FFF73AFBDC
:1021400008B1FEF704FC06B010BD00BFFEB50021CB
:10215000BA4841F61F4341F2873CCDE90411CDE96D
:102160000211CDE90011D34AC0E90023C0E9021CE5
:1021700001618161FFF74CFB08B1FEF7E8FB4FF40A
:10218000805002A90290AD48FFF7DAFB08B1FEF7D4
:10219000DEFB00206946CDE90000A848FFF70AFBF6
:1021A00008B1FEF7D4FB06B080BD00BF80B50B4878
:1021B000F3494FF4E13200234FF00C0C80E80E009D
:1021C000C0E90333C0E905C3C361FFF7F3FC18B1ED
:1021D000BDE88040FEF7BBBB80BD00BF4C010020C6
:1021E000FEE7FEE770B51A4D0024082C08BF70BD4D
:1021F00004F1B000C0B2A84700200026A847102074
:10220000A84703E0002000F0A3F8013670B20028D0
:10221000F8DA0134E9E700BF80B5C820FEF730FCEA
:1022200000F0E8F9BDE88040FFF7DCBFB0B5084D2D
:10223000044601F1B000C0B2A847102040EA1410D3
:10224000A84704F00F002946BDE8B040084700BF8A
:102250002D2300082DE9F84305460C461E46174677
:1022600068B2B0F1FF3FDCBF02340025E1B228467E
:10227000FFF7DCFFA7F12000102EC0B220D1DFF85D
:1022800064804FEA0019002708EB001603E0F05DB8
:1022900000F05EF80137082FF9D1601CC1B2284662
:1022A000FFF7C4FF49F00800002508EB0004082DE3
:1022B00008BFBDE8F883605D00F04AF80135F6E735
:1022C000074900EB4000002501EB400403E0605D9E
:1022D00000F03EF80135062DF9D1BDE8F88300BFC6
:1022E000FE300008263300082DE9F0479846914655
:1022F0008A460746002612E0FCB25FFA8AF543469A
:1023000020462946FFF7A6FF07F108000136C0B2B4
:10231000792826BF05F1020A002704F10807F0B268
:1023200019F80020002AE7D1BDE8F087F8B58DF84C
:102330000F004FF4807001210DF10F020123CDE950
:1023400000210290B84878210022FEF71BFE8FBDC5
:10235000F8B58DF80F004FF4807001210DF10F02D8
:102360000123CDE900210290AF4878214022FEF7F9
:1023700009FE8FBD6800002070477047FEF7C6BE9B
:10238000B0B590B0002401A81421CDE90B44CDE9EB
:102390000944FDF7CEFE01204FF48031022506905E
:1023A000CDE907140A904FF4E010CDE90D510F90DC
:1023B00006A8FFF729F818B1EFF3108072B6FEE710
:1023C0000F200221CDE901054FF480600394CDE98F
:1023D000040401A8FEF73AFF18B1EFF3108072B6BB
:1023E000FEE710B0B0BD704780B5DA48FFF725FBB7
:1023F00014484FF6FF7201681144016080BD00BFB0
:1024000080B5D548FFF719FBD248DFF838C001681E
:1024100000204A6A4862DCF800301A440A4BCCF8C3
:1024200000201860094B196801311960022901BFA9
:10243000186007490A60CCF8000080BD0401002044
:10244000BC000020BC010020C0010020B801002019
:102450000000002010B5B0F1804F0368144A1CBF83
:10246000134CA04202D0134CA04203D14C6823F07D
:1024700070032343B0F1804F1CBF0D4CA04202D02B
:102480000C4CA04203D1CC6823F4407323434C6925
:1024900023F08003904243EA040303608B68C36225
:1024A0000B68836204BF096911630121416110BD9A
:1024B000002C014000040040D0F820C0036A23F043
:1024C00001030362836923F0F00343EA021282618D
:1024D0002CF00A02114301627047D0F820C0036A51
:1024E00023F010030362836923F4704343EA02324A
:1024F00082612CF0A00242EA0111016270470000E3
:1025000010B5044620680169E26821F44051114386
:1025100041F20C620161D4F808C0D4E904E3C16857
:1025200091434EEA0C021A431143C1604169A2690A
:1025300021F44071114341611149884202D0FEF7F4
:102540001FFF01E0FEF726FF19214843D4E90012DE
:102550006FF063049200B0FBF2F06422B0FBF2F380
:1025600003FB0400322404EB0010B0FBF2F000F097
:10257000F00200F00F0002EB03121043886010BD60
:10258000003801402DE9F0411D4690460F460446B3
:102590006E1C206800683840B84226D0002EF8D063
:1025A0002DB1FEF731FCA0EB0800A842F1D920685C
:1025B00050E8030F216820F4D07041E80302002A9C
:1025C000F5D1206850E8050F216820F0010041E8AE
:1025D0000502002AF5D1202084F8410084F8420049
:1025E000002084F84000032000E00020C0B2BDE8D5
:1025F000F081FEE72DE9FF410A4E0B4C00254FF418
:10260000807801271B2D08BFBDE8FF817019782154
:10261000002201238DE881012046FEF7B3FC01353D
:10262000F0E700BF34000020680000202DE9FE4FD5
:10263000FEF772FDFFF7A4FEFFF70AFDFFF736FD78
:10264000FFF750FDFFF782FDFFF7B0FDFFF7E4FD58
:102650004048FFF74FF94048FFF74CF9DFF8FC809E
:102660000FF2241908F1080A4FF47A70FEF708FAFD
:1026700050462021FDF75DFDD8F80020504638A1D6
:1026800000F08EF80020002152461023FFF72CFEA8
:10269000D8F80000FDF714FF364A374BFDF71CFE53
:1026A0000B46364902460020FDF788FEFDF73CFF49
:1026B000054633480121FEF7A1FB10B92846FEF775
:1026C000A3F9FEF7CFF9074650462021C8F8047059
:1026D000FDF72FFD28463946FDF788FD294D0746B1
:1026E0002946FDF7DAFE064638462946FDF7B6FDCF
:1026F0000446002E294608BF3C462046FDF7CDFE85
:10270000064620462946FDF7A9FD002E08BF2046B3
:10271000FDF7F7FE06468B4620462946FDF7BDFE2F
:10272000044638462946FDF7B8FE00284FF07002EF
:10273000CDE9006B5046494618BF6E22002C18BFE9
:10274000752200F02DF80020042152461023FFF7D7
:10275000CBFD89E7BC000020040100200000002020
:102760004672657128485A293A2564202020202085
:1027700020000000A2410A9E422EE63F84D78741F6
:102780000008014000007A444361702825636629EF
:102790002D3E252E32662020202020200000000023
:1027A0000FB4084B10B504A902AA039800F0F4F87E
:1027B000044602A9002000F091FC204610BC5DF800
:1027C00014FB0000DD3000087CB5044600201D46E7
:1027D000164600290BD0491ECDE90041044B6A463C
:1027E0002946304600F0D8F8009A002111707CBDCF
:1027F000C730000802E008C8121F08C1002AFAD139
:1028000070477047002001E001C1121F002AFBD170
:10281000704700002DE9FF5F82B00021DDE9043040
:10282000020DDDF840B0034318D044F61050A2F278
:10283000FF3242431514119801281FD0A5EB0B005D
:10284000401C5FEA000A4FF000064E4FDFF8389157
:10285000B046504615D5CAF1000413E01198012482
:102860004AA3012801D16FEA0B010298119AC0E92D
:102870000031C0E9024206B0BDE8F09FCBF1000094
:10288000DFE704460021404A491842EB0450CDE9F5
:10289000001012E0E00707D032463B46404649466A
:1028A000FDF71AFD8046894632463B4610461946DA
:1028B000FDF712FD06460F466410002CEAD1DDE953
:1028C0000401DDE90023BAF1000F06DAFDF704FD8B
:1028D00042464B46FDF700FD05E0FDF76FFD424621
:1028E0004B46FDF76BFD04460E460022284BFDF7D4
:1028F000D1FF03D84FF0FF30014607E00022254BFF
:1029000020463146FDF707FFFDF7ACFF102409E034
:10291000002C0ADB0A220023FDF738FE039B30322D
:102920001A55641E50EA0102F2D1641C039AC4F1E4
:1029300011031444119A012A03D0012208430DD136
:102940000AE0084304D000204FF0110B119072E709
:10295000A3EB0B056D1E0DE05B4504DD4FF000029F
:1029600005F1010504E003DA4FF00002A5F10105CD
:10297000002AECD002981199C0E90231C0E9004563
:1029800079E70000000014400000F03F3000000034
:102990000000F0430000E03F2DE9FF4F95B09B465B
:1029A0008946064600250FE2252877D100242746D0
:1029B000F84A0121059400E0044316F8013F203B4A
:1029C00001FA03F01042F7D130782A2811D06FF0C5
:1029D0002F033078A0F13002092A16D8059A44F066
:1029E000020402EB820203EB42021044761C0590C3
:1029F000EFE759F8042B0592002A03DA504244F419
:102A00000054059044F00204761C30782E2816D12C
:102A100016F8010F44F004042A280DD06FF02F029D
:102A20003078A0F13003092B09D807EB870302EBBC
:102A30004303C718761CF3E759F8047B761C3078FB
:102A40006C280FD006DC4C2817D068280DD06A28D7
:102A500014D104E0742810D07A280FD10DE044F48A
:102A600000140AE044F4801401E044F44014727845
:102A7000824202D104F58014761C761C30786628D8
:102A80000BD013DC582877D009DC002875D04528F6
:102A9000F6D04628F4D047281AD19DE118E06328E3
:102AA00035D0642879D0652812D195E1702873D08B
:102AB00008DC6728F1D069286FD06E280DD06F2808
:102AC00006D1B5E073282CD0752875D0782874D03D
:102AD0005A46179990476D1C75E1C4F302500228BD
:102AE00009D003280DD0D9F8001004280DD00D60AE
:102AF00009F1040967E1D9F80010EA17C1E90052A9
:102B0000F6E7D9F800100D80F2E70D70F0E719F83C
:102B1000041B8DF8001000208DF80100EA4601200A
:102B200003E059F804AB4FF0FF3061074FF00001AC
:102B300002D40DE008F101018846B9420FDA804560
:102B4000F8DB1AF808100029F4D108E008F10101B7
:102B500088468142FADB1AF808100029F6D1059858
:102B60005B46A0EB080721463846179A00F094FA16
:102B7000284400EB080507E04DE029E10DE01AF8D4
:102B8000010B5A4617999047B8F10108F7D25B46F6
:102B900021463846179A13E142E00A220092C4F314
:102BA00002524FF0000A022A08D059F804CB032A37
:102BB0004FEAEC710AD00DE029E02AE009F10701A3
:102BC00021F00702F2E802C1914609E00FFA8CFCFD
:102BD0004FEAEC71042A03D14FFA8CFC4FEAEC71F6
:102BE000002907DA0A460021DCF1000C61EB020142
:102BF0002D2202E0220504D52B228DF8042001228B
:102C000003E0E20701D02022F7E7904659E00A21CD
:102C100002E010220DE010214FF0000A00910BE0BD
:102C200010224FF0000A44F004040827009203E049
:102C300008224FF0000A0092C4F30252022A05D083
:102C400059F804CB0021032A08D009E009F1070153
:102C500021F00702F2E802C1914605E01FFA8CFC60
:102C6000042A01D10CF0FF0C4FF00008220728D5F0
:102C7000702806D0009B83F0100353EA0A0305D0A6
:102C80000EE040228DF80420012208E05CEA0102F7
:102C900006D030228DF804208DF8050002229046DF
:102CA000009B83F0080353EA0A030AD15CEA01029D
:102CB00001D1620705D530228DF804204FF00108BC
:102CC0007F1E582804D034A003900EA802900DE077
:102CD00036A0F9E753466046009AFDF757FC844654
:102CE0000398825C0298401E029002705CEA010028
:102CF000F0D1029806A9081A00F1200A600702D54F
:102D000024F4803400E00127574502DDA7EB0A00D8
:102D100000E0002000EB0A01009005984144401AB1
:102D20000590E00306D45B462146179A059800F00B
:102D3000B3F90544002706E001A85A46C05D17997B
:102D400090476D1C7F1C4745F6DBE0030CD55B46C6
:102D50002146179A059800F09FF9054404E03020B9
:102D60005A46179990476D1C0099481E00900029FB
:102D7000F5DC08E0029802995A460078491C029155
:102D8000179990476D1CBAF10001AAF1010AF1DC14
:102D900065E100000928010030313233343536371F
:102DA0003839616263646566000000003031323397
:102DB0003435363738394142434445460000000037
:102DC00000F058F90544761C307800287FF4ECAD0B
:102DD00019B02846BDE8F08F620700D4062709F134
:102DE000070222F0070CFCE80223E14603F000484A
:102DF0005FEA080C02D00FF2702C0DE05FEA045C71
:102E000002D50FF2682C07E05FEAC47C02D00FF213
:102E1000602C01E0AFF2700C4FF0FF3823F000435C
:102E2000CDF850C065280CD006DC452809D04628CE
:102E30001DD047283DD13DE0662818D067287ED1B7
:102E400038E00021112F01DB112000E0781CCDE9D2
:102E5000000106A90EA8FFF7DDFCDDE90F010E9ABF
:102E600003910021009207F1010A04914DE04FF017
:102E700000400097CDE9011006A90EA8FFF7CAFC93
:102E8000DDE90F0203920E9B11990022DDF80CA0E0
:102E90000093049211B9791C00EB010AB7EB0A0008
:102EA00004D4C0F1FF3007F1010A0490AAEB070037
:102EB000019044E0012F00DA01270021112F01DDEC
:102EC000112000E03846CDE9000106A90EA8FFF761
:102ED000A1FCDDE90F010E9A0391002104910092FB
:102EE000BA4621070CD40399514500DA8A46BAF153
:102EF000010F05DD009AAAF10101515C302908D0CB
:102F0000B84202DA10F1040F06DA0121CDE901100E
:102F100015E0AAF10101E9E7002805DC0499014464
:102F20000491AAEB000102E0411C514500DD8A46F4
:102F30000499401A401C01904FF000400290200775
:102F400004D40198504501DBCDF8048000208DF8B1
:102F50004F0002980DF14F07B0F1004F25D02B2004
:102F60000E9002984FF0020800280CDA40420290BE
:102F70002D200E9007E00A210298FDF7F1FA30317A
:102F8000029007F8011DB8F10001A8F10108F2DC78
:102F900002980028EFD1791E0E980870307800F062
:102FA000200040F0450007F8020D12A8C01B00F1F8
:102FB00007081498007800B1012000EB0A0101987D
:102FC00001EBE07105984144401A401E0590E00372
:102FD00006D45B462146179A059800F05DF8054433
:102FE0001498007818B15A46179990476D1CE00361
:102FF00024D55B462146179A059800F04DF8054404
:103000001CE00498002807DBDDE90301884203DDAA
:103010000098405C179901E0179930205A46904774
:10302000049805F10105401C04900198401E019090
:1030300004D12E205A46179990476D1CBAF1000111
:10304000AAF1010ADDDC05E017F8010B5A461799D1
:1030500090476D1CB8F10001A8F10108F4DC5B4653
:103060002146179A0598ABE62D0000002B000000C2
:10307000200000002DE9F041044600251E461746B9
:10308000880404D405E039462020B0476D1C641E36
:10309000F9D52846BDE8F0812DE9F0410446002528
:1030A0001E469046C80301D5302700E0202788043B
:1030B00004D505E041463846B0476D1C641EF9D57D
:1030C0002846BDE8F0814A68002A06D00A68531CE9
:1030D0000B6010704868401E486070470A68531CB7
:1030E0000B6010707047000000000000000001023B
:1030F00003040607080900000000010203040000A1
:10310000000000000000002F000000000700070082
:1031100000147F147F1400242A7F2A12006264089E
:10312000132300364955225000000503000000001B
:103130001C224100000041221C000014083E08141B
:103140000008083E0808000000A060000008080809
:103150000808000060600000002010080402003E23
:103160005149453E0000427F4000004261514946BE
:10317000002141454B31001814127F1000274545AE
:103180004539003C4A4949300001710905030036C0
:103190004949493600064949291E000036360000D3
:1031A00000005636000000081422410000141414D8
:1031B00014140000412214080002015109060032D3
:1031C0004959513E007C1211127C007F4949493611
:1031D000003E41414122007F4141221C007F49497C
:1031E0004941007F09090901003E4149497A007FB0
:1031F0000808087F0000417F4100002040413F0156
:10320000007F08142241007F40404040007F020CB4
:10321000027F007F0408107F003E4141413E007F55
:1032200009090906003E4151215E007F091929461E
:103230000046494949310001017F0101003F4040FA
:10324000403F001F2040201F003F4038403F0063A8
:1032500014081463000708700807006151494543CA
:1032600000007F41410000552A552A550000414188
:103270007F00000402010204004040404040000082
:1032800001020400002054545478007F484444381C
:1032900000384444442000384444487F00385454A3
:1032A000541800087E0901020018A4A4A47C007F21
:1032B000080404780000447D4000004080847D00C4
:1032C000007F102844000000417F4000007C04186B
:1032D0000478007C0804047800384444443800FC36
:1032E000242424180018242418FC007C0804040852
:1032F00000485454542000043F444020003C4040C7
:10330000207C001C2040201C003C4030403C0044FD
:1033100028102844001CA0A0A07C004464544C4405
:103320001414141414140000000000000000000025
:10333000000000000000000000F800000000000095
:1033400000333000000000100C06100C06000000D6
:1033500000000000000040C07840C0784000043FFA
:1033600004043F040400007088FC083000000018CA
:1033700020FF211E0000F008F000E01800000021EE
:103380001C031E211E0000F00888700000001E2192
:1033900023241927211010160E0000000000000041
:1033A000000000000000000000E01804020000001F
:1033B00000071820400000020418E0000000004050
:1033C000201807000000404080F0804040000202CA
:1033D000010F01020200000000F0000000000101E6
:1033E000011F01010100000000000000000080B08A
:1033F000700000000000000000000000000000015C
:103400000101010101010000000000000000003086
:103410003000000000000000000080601804006020
:1034200018060100000000E010080810E000000F7E
:10343000102020100F00001010F8000000000020E5
:10344000203F20200000007008080888700000302D
:1034500028242221300000300888884830000018D5
:10346000202020110E000000C02010F800000007EE
:103470000424243F240000F8088888080800001964
:10348000212020110E0000E0108888180000000F95
:10349000112020110E0000380808C838080000006C
:1034A000003F000000000070880808887000001CC1
:1034B000222121221C0000E010080810E00000007A
:1034C000312222110F00000000C0C00000000000E7
:1034D000003030000000000000800000000000000C
:1034E0008060000000000000804020100800000103
:1034F00002040810200040404040404040000404C6
:10350000040404040400000810204080000000208F
:10351000100804020100007048080808F0000000CC
:10352000003036010000C030C828E810E00007185D
:10353000272423140B000000C038E0000000203CCA
:1035400023020227382008F8888888700000203F6E
:10355000202020110E00C030080808083800071885
:1035600020202010080008F808080810E000203F7C
:10357000202020100F0008F88888E8081000203F5D
:1035800020202320180008F88888E8081000203F31
:10359000200003000000C0300808083800000718A9
:1035A0002020221E020008F808000008F808203F2A
:1035B000210101213F20000808F808080000002030
:1035C000203F2020000000000808F8080800C08004
:1035D00080807F00000008F888C028180800203F7D
:1035E00020012638200008F8080000000000203FD5
:1035F00020202020300008F8F800F8F80800203FCC
:10360000003F003F200008F830C00008F808203FC5
:10361000200007183F00E01008080810E0000F1015
:10362000202020100F0008F808080808F000203FAC
:10363000210101010000E01008080810E0000F1847
:10364000242438504F0008F8888888887000203F6C
:103650002000030C3020007088080808380000386B
:10366000202121221C00180808F808081800000072
:10367000203F2000000008F808000008F808001F9C
:10368000202020201F000878880000C8380800008B
:1036900007380E010000F80800F80008F800033CA5
:1036A0000700073C0300081868808068180820306D
:1036B0002C03032C30200838C800C838080000004C
:1036C000203F2000000010080808C83808002038F3
:1036D000262120201800000000FE02020200000047
:1036E000007F40404000000C30C00000000000009F
:1036F00000010638C00000020202FE000000004087
:1037000040407F00000000000402020204000000AC
:1037100000000000000000000000000000008080A9
:103720008080808080800002020400000000000091
:103730000000000000000000808080800000001970
:10374000242222223F2008F8008080000000003F51
:10375000112020110E000000008080800000000E6B
:10376000112020201100000000808088F800000E49
:10377000112020103F200000808080800000001F6A
:10378000222222221300008080F0888888180020DE
:10379000203F202000000000808080808000006B9F
:1037A00094949493600008F8008080800000203F8B
:1037B000210000203F200080989800000000002099
:1037C000203F20200000000000809898000000C0EA
:1037D0008080807F000008F8000080808000203F0B
:1037E00024022D302000000808F80000000000200E
:1037F000203F202000008080808080808000203F4B
:1038000020003F20003F8080008080800000203F1B
:10381000210000203F200000808080800000001FE9
:10382000202020201F00808000808000000080FF7A
:10383000A12020110E000000008080808000000E7A
:10384000112020A0FF8080808000808080002020C8
:103850003F21200001000000808080808000003334
:10386000242424241900008080E0808000000000CF
:10387000001F202000008080000000808000001FCA
:10388000202020103F208080800000808080000168
:103890000E300806010080800080008080800F309C
:1038A0000C030C300F00008080008080800000201E
:1038B000312E0E3120008080800000808080808149
:1038C0008E701806010000808080808080000021BA
:1038D000302C2221300000000000807C0202000019
:1038E0000000003F40400002027C800000000040D9
:1038F000403F0000000000000000FF00000000004A
:103900000000FF0000000000303900080000002027
:1039100068000000F42700089839000868000020BB
:1039200060050000042800080000000000000000FE
:103930000100000000000000000000000000000086
:103940000000000000000000000000000000000077
:103950000000000000000000010000001000000056
:1039600000000000AE001040B081FFA1A6A83FC833
:10397000D300D580D805D9F1DA12D8308D14AF0034
:1039800000000000000000000070000801000000BE
:083990000024F4000000000017
:04000005080000ED02
:00000001FF
